:020000041004E6
:1008000000600020793A05101D2C05101F2C0510E2
:10081000AA5555AA45554C420000000000000000B2
:10082000000000000000000000000000212C051066
:100830000000000000000000BF190410232C051068
:100840002B2C0510CB1D0410000000000000000040
:10085000712C0510071E0410732C05101B44041086
:100860000000000000000000000000000000000088
:10087000000000008F4D0410DB4D04103F500410A9
:100880000000000037200410032A04104730041031
:100890008B3A0410273E041007510410EF50041047
:1008A0000000000000000000000000000000000048
:1008B0000000000000000000000000000000000038
:1008C00078B589B00400002568460570B94800F085
:1008D0001DFF00283CD101220F21684600F07BFF5C
:1008E000002835D1684600786928F4D1052069468A
:1008F000087001221221684600F0ACFF002827D1C1
:1009000001221221684600F066FF002820D16846C7
:1009100000780428F4D16846457001221221401C59
:1009200000F059FF002813D16846407804210143A4
:100930006846417001221221401C00F08BFF002804
:1009400006D101220A2100A8401C00F044FF002823
:1009500000D0E1E16846407880210840694648704F
:1009600001220A2100A8401C00F074FF00286FD16A
:100970000194207800F0E8FF69464D708021090459
:1009800001F00AF801D200242AE0A54901F004F898
:1009900001D2102424E0A34900F0FEFF01D220245C
:1009A0001EE0A14900F0F8FF01D2302418E09F4971
:1009B00000F0F2FF01D2402412E09D4900F0ECFF6C
:1009C00001D250240CE09B4900F0E6FF01D26024E4
:1009D00006E0994900F0E0FF01D2702400E0802495
:1009E0000122112100A8401C00F0F5FE00282FD1A3
:1009F000684640780007000F0443684644700122AF
:100A00001121401C00F026FF002821D101984078D8
:100A100000F09AFF029000246846457002988749CA
:100A200000F0BAFF15D20122112100A8401C00F0ED
:100A3000D2FE00280CD16846407802210143684666
:100A4000417001221121401C00F004FF00283DD01C
:100A500062E10122112100A8401C00F0BCFE002828
:100A6000F6D168464078FD21014068464170012278
:100A70001121401C00F0EEFE0028E9D10298C14986
:100A800000F08AFF0CD3C04900F086FF01D2042495
:100A900006E0BE4900F080FF01D2082400E00C24EB
:100AA0000122112100A8401C00F095FE0028CFD1A2
:100AB00068464078F32101400C43684644700122A7
:100AC0001121401C00F0C6FE0028C1D10198007918
:100AD0000199C9786A46557000245580019A927828
:100AE000002A00D00824002902D010216A46D170C3
:100AF000002802D02020694688700122192100A810
:100B0000401C00F068FE0028A2D168464078F7211A
:100B100001400C43EF2020406946C9780143DF20A3
:100B200008406946897801436846417001221921CD
:100B3000401C00F08FFE00288AD10198407900F017
:100B400003FF69464D708021090400F025FF01D2A2
:100B5000002438E0324900F01FFF01D2102432E0B7
:100B6000304900F019FF01D220242CE02E4900F07A
:100B700013FF01D2302426E02C4900F00DFF01D2F2
:100B8000402420E02A4900F007FF01D250241AE057
:100B9000284900F001FF01D2602414E0264900F04A
:100BA000FBFE01D270240EE0794900F0F5FE03D27D
:100BB000802408E000127A00764900F0EDFE01D2B0
:100BC000902400E0A0240122102100A8401C00F085
:100BD00002FE00283CD1684640780007000F04431D
:100BE0006846447001221021401C00F033FE0028AA
:100BF0002ED10198807900F0A7FE002469464D703F
:100C0000BA4900F0C9FE1CD3B94900F0C5FE01D2B3
:100C1000082416E0B74900F0BFFE11D20C2410E002
:100C2000010050410100D041010050420100D0427A
:100C3000010050430100D043014050440100FA42FA
:100C400004240122102100A8401C00F0C4FD00284B
:100C500062D168464078F32101400C4368464470F5
:100C600001221021401C00F0F5FD002854D101980C
:100C7000407A0199097A6A46557000260024019A43
:100C8000D279002A00D00826002900D0102400289C
:100C900000D020250122182100A8401C00F09BFD57
:100CA000002839D168464078F72101400E43EF20F3
:100CB00030400443DF202040054368464570012250
:100CC0001821401C00F0C6FD002825D101220D216D
:100CD000684600F080FD00281ED168460078032198
:100CE00001436846017001220D2100F0B3FD002888
:100CF00012D101221A21684600F06DFD00280BD1A7
:100D000068460078802101436846017001221A215B
:100D100000F0A0FD002801D0012031E001210120D8
:100D200000F04EFE1CA003C804AA03C200F0B0FEEF
:100D3000C84C80002058049004A800F0AFFE00BF0B
:100D400017A00068039003A800F06EFF06A80C210E
:100D500000F0C0FF00F09CFE80002058069006A81E
:100D600000F01DFF00F094FE8000205800F042FFCC
:100D700000F08EFE01218000205800F031FF00209D
:100D80000AB070BD010075430100FA4301007A44C6
:100D90000180CF4401205045000000000000000009
:100DA0000003010080B5002801D1012002BD01220D
:100DB0000F2100F010FD02BD38B505000222002110
:100DC000684600F0A0FF02222821684600F003FDDB
:100DD000002818D16C4660780002217840182880DD
:100DE00002222A21684600F0F6FC00280BD1607828
:100DF000000221784018688002222C21684600F009
:100E0000EAFC002801D0012032BD9EE0FEB50500BD
:100E100000240222002100A8801C00F074FF02229E
:100E2000282100A8801C00F0D6FC002824D100AEA8
:100E3000B61C707800023178471802222A2100A8D7
:100E4000801C00F0C8FC002816D1707800023178B0
:100E500040186946888002222C2100A8801C00F0DE
:100E6000BAFC002808D169460870012210216846A2
:100E700000F0B1FC002801D00120FEBD68460078DA
:100E80000C2101400CD0042904D0082906D00C29DB
:100E900002D006E0904C04E0904C02E0904C00E060
:100EA000904C38B200F060FD0100200000F035FFEA
:100EB00000F08CFF2860019800B200F055FD0100A1
:100EC000200000F02AFF00F081FF686070780002C7
:100ED0003178401800B200F047FD0100200000F01A
:100EE0001CFF00F073FFA8600020FEBD0100004061
:100EF000010080400100004138B5050002220021B8
:100F0000684600F000FF02222221684600F063FCE0
:100F1000002818D16C46607800022178401828809B
:100F200002222421684600F056FC00280BD160788C
:100F3000000221784018688002222621684600F0CD
:100F40004AFC002801D0012032BD607800022178DF
:100F50004018A880002032BDF8B506000024022207
:100F60000021684600F0CFFE02222221684600F0F0
:100F700032FC00286BD16D4668780002297847184A
:100F800002222421684600F026FC00285FD1687800
:100F900000022978401869464880022226216846C6
:100FA00000F019FC002852D1687800022978451811
:100FB00069460C7001221121684600F00CFC0028E3
:100FC00045D16846007802210840694608706846A5
:100FD0000078022801D1814C18E0012211216846D5
:100FE00000F0F9FB002832D1684600780C2101405E
:100FF0000BD0042907D0082903D00C2906D1784C3E
:1010000004E0784C02E0784C00E0A04C38B200F0EC
:10101000ABFC0100200000F080FE00F0D7FE306045
:101020000098001400F0A0FC0100200000F075FE04
:1010300000F0CCFE706028B200F096FC01002000A9
:1010400000F06BFE00F0C2FEB0600020F2BD012097
:10105000F2BD0000E03A05101CB50400002069460E
:10106000087001221021684600F0B5FB002801D06D
:10107000012016BD68460078F021014014D01029E7
:1010800014D0202914D0302914D0402914D050294C
:1010900014D0602914D0702914D0802914D090293C
:1010A00014D0A02914D015E0002012E0784810E0F8
:1010B00078480EE078480CE078480AE0944808E068
:1010C000944806E0944804E0944802E0944800E024
:1010D00094482060002016BD23DBF93E23DB793ED7
:1010E00023DBF93D23DB793D1CB5002469460C70F8
:1010F0008021090400F050FC36D38B4900F04CFCF1
:1011000001D2102430E0894900F046FC01D22024AD
:101110002AE0874900F040FC01D2302424E08549D0
:1011200000F03AFC01D240241EE0834900F034FC78
:1011300001D2502418E0814900F02EFC01D2602435
:1011400012E07F4900F028FC01D270240CE07D49B8
:1011500000F022FC01D2802406E0A04900F01CFC33
:1011600001D2902400E0A02401221021684600F062
:1011700032FB00280CD1684600780007000F0443BA
:10118000684604700122102100F064FB002800D0A2
:10119000012016BD1CB5040000206946087001221C
:1011A0001021684600F017FB002801D0012016BD71
:1011B000684600780C21014006D004290AD008298D
:1011C00004D00C2904D007E0854804E0854802E0FB
:1011D000854800E0A1482060002016BD00008C403A
:1011E00000008C4200000C4200008C411CB5040041
:1011F00000206946087001221021684600F0EBFAD1
:10120000002801D0012016BD684600780C2101405D
:1012100006D004290AD0082904D00C2904D008E0FB
:10122000802004E0812002E0822000E08320C005CD
:101230002060002016BD1CB5002469460C7088494A
:1012400000F0AAFB0CD3874900F0A6FB01D20824CA
:1012500006E0A14900F0A0FB01D20C2400E0042428
:1012600001221021684600F0B6FA00280CD1684629
:101270000078F32101400C436846047001221021DC
:1012800000F0E8FA002800D0012016BD00000C4153
:10129000000050410000D041000050420000D04208
:1012A0001CB504000020694608700122112168461F
:1012B00000F091FA002801D0012016BD68460078A0
:1012C000F021014010D0102910D0202910D0302951
:1012D00010D0402910D0502910D0602910D070298A
:1012E00010D0802910D011E000200EE07B480CE0E7
:1012F0007B480AE07B4808E07B4806E0044804E0BD
:10130000044802E0044800E004482060002016BDC4
:10131000000050430000D043004050440080CF44C0
:10132000002050450020D045010050410100D0412F
:10133000010050420100D042010050430100D0435F
:10134000014050440180CF441CB5002469460C7014
:101350008021090400F020FB2AD3914900F01CFBF6
:1013600001D2102424E08F4900F016FB01D2202482
:101370001EE08D4900F010FB01D2302418E08B49AB
:1013800000F00AFB01D2402412E0894900F004FB7E
:1013900001D250240CE0874900F0FEFA01D260240B
:1013A00006E0854900F0F8FA01D2702400E08024BC
:1013B00001221121684600F00EFA00280CD168467F
:1013C00000780007000F04436846047001221121D1
:1013D00000F040FA002800D0012016BD0120504541
:1013E00023DB793D23DBF93D23DB793E1CB504008B
:1013F00000206946087001221121684600F0EBF9CF
:10140000002812D168460078022108406946087019
:1014100068460078022801D168481BE001221121AA
:10142000684600F0D8F9002801D0012016BD6846B2
:1014300000780C21014006D0042906D0082906D0E6
:101440000C2906D007E05E4804E05E4802E05E48F2
:1014500000E05E482060002016BD000023DBF93E5E
:1014600001000040010080401CB5040000206946D6
:10147000087001221121684600F0ADF9002812D150
:10148000684600780221084069460870684600787E
:10149000022801D14E481BE001221121684600F0CC
:1014A0009AF9002801D0012016BD684600780C2169
:1014B000014006D0042906D0082906D00C2906D000
:1014C00007E0444804E0444802E0444800E044485F
:1014D0002060002016BD00000100004100005041C6
:1014E0000000D041000050420000D04238B5050055
:1014F00000246846047028003A4900F04DFA14D2DE
:1015000001221121684600F066F9002846D168469C
:10151000007802210143684601700122112100F088
:1015200099F900283AD1002032BD012211216846E4
:1015300000F051F9002831D168460078FD210140C2
:10154000684601700122112100F084F9002825D19C
:101550002800254900F020FA0CD3244900F01CFA99
:1015600001D2042406E0224900F016FA01D2082430
:1015700000E00C2401221121684600F02CF900281B
:101580000CD168460078F32101400C436846047092
:101590000122112100F05EF90028C4D0012032BDE3
:1015A000010050410100D041010050420100D042F1
:1015B000010050430100D0430140504400008C40E2
:1015C00000000C4100008C4100000C4200008C42E5
:1015D0000000FA42000075430000FA4300007A441C
:1015E0000000FA440100FA42010075430100FA4389
:1015F00001007A441CB500246846047001221021C1
:1016000000F0E9F8002841D16846007863210140E4
:10161000602008436946087001221021684600F0E6
:1016200019F9002832D101225C21684600F0D3F874
:1016300000282BD16846047001225C2100F00AF9D1
:10164000002823D101225D21684600F0C4F800285B
:101650001CD133206946087001225D21684600F0E4
:10166000F9F8002812D101225E21684600F0B3F893
:1016700000280BD1684600781021014368460170AC
:1016800001225E2100F0E6F8002800D0012016BDFE
:101690001CB500246846047001225E2100F09BF80E
:1016A00000281AD168460078EF2101406846017091
:1016B00001225E2100F0CEF800280ED101225D212A
:1016C000684600F088F8002807D1684604700122B7
:1016D0005D2100F0BFF8002800D0012016BD1CB528
:1016E000040000206946087001221B21684600F0B2
:1016F00072F8002801D0012016BD6846007820212C
:10170000084000D001202070002016BDF8B584B03C
:1017100007000121112000F053F9684600F026FA75
:1017200000F0B6F95C4980000858009000F0B0F96C
:101730006C465A498000085820710120A07100258C
:101740006571684600F0AAF900F0A2F954498000DA
:101750000858009000F09CF9524980000858207108
:10176000684600F09BF900F093F94F498000085853
:10177000009000F08DF94D498000085820716846AE
:1017800000F08CF900F084F9494E80003058009048
:1017900006202071684600F081F900F079F9800098
:1017A000305800F0E9F902A800F072FB02A80570B9
:1017B000072141704580039700F043FBFF2000F0B4
:1017C000B0FB00F096FB00F08CFB012000F06AFB00
:1017D000002005B0F0BDF8B504000E001700002091
:1017E00000F097FB00F054F9314D8000285800F0CC
:1017F000C6F9012000F06CFB0028FAD080203043AD
:1018000000F05CFB042000F063FB0028FAD000F03D
:1018100058FB002611E0012000F05AFB0028FAD006
:10182000FF2000F04BFB042000F052FB0028FAD010
:1018300000F047FBF1B26054761CF0B2B842EAD334
:10184000102000F045FB0128FAD000F021F98000BB
:10185000285835E0F8B507000D001600012000F00B
:1018600058FB00F015F9134C8000205800F087F960
:10187000280000F023FB3500002603E0385C00F070
:101880001DFB761CF0B2A842F8D3102000F020FB1C
:101890000128FAD010E00000C83A0510CC3A051033
:1018A000D03A0510D43A0510D83A0510DC3A0510A4
:1018B000C43A0510C43A051000F0EAF88000205838
:1018C00000F05AF90020F2BD0000F1B4016842189E
:1018D00041684808131800988068C9071ED5494612
:1018E00040181BE01778521C0770401C761EF9D177
:1018F000002C13D01678521C89080D40032D01D1FD
:101900001578521C290271184D424119A41C05D0AA
:101910000D78491C0570401C641EF9D19A420FD005
:101920001178521C032503260E4002D11678F61CAE
:10193000521C0C090F2CD9D114780F34521CD5E746
:1019400000980C30F2BC70479D2102000AD002D4EE
:10195000491E9218FCD5C905100A1206524100D33F
:10196000012A4841704700009D210200EED55242F5
:10197000F446FFF7EBFF0122D207104360470C0843
:1019800002170D01010209090101060209FFFFFF0B
:10199000FFFF0909FFFFFFFF0CB401221206031825
:1019A000DA4207D84B18DA4204D802000A439218E8
:1019B00002D288420CBC7047FCD08142FAE77047E3
:1019C0002D4A0129116802D10843106070478143F4
:1019D000116070472948007829490988002821D1D9
:1019E0000A00093A792A21D209220A40092A01D19A
:1019F0000620704711220A40112A01D107207047A2
:101A000021220A40212A01D10820704741220A40A0
:101A1000412A01D10920704781220A40812A05D13B
:101A20000A20704702281CD101207047FF22921C17
:101A300013000B40934201D10B207047114A130051
:101A40000B40934201D10C20704705220A40052A21
:101A500001D1052070478907890F032901D104208E
:101A60007047042801D102207047082801D10320C3
:101A70007047002070470000200090400800904010
:101A80000800104801040000012003490870704755
:101A900001480078704700006C0B0020F0B5047915
:101AA00022000021594B002C04D11C680568AC436E
:101AB0001C6006E0062C04D100221C680568254342
:101AC0001D600568CD40ED0738D5082909DA8D007D
:101AD0009E6A0F27AF40BE431700AF4037439F6257
:101AE0002CE00D00083D082D0BD20D00083DAD0087
:101AF000DE6A0F27AF40BE431700AF403743DF62B7
:101B00001CE00D00103D082D0BD20D00103DAD0066
:101B10001E6B0F27AF40BE431700AF4037431F6314
:101B20000CE018290ADB0D00183DAD009E8E0F2732
:101B3000AF40BE431700AF4037439F86491C1A2968
:101B4000BFDB01684279012A9A6802D1114399608A
:101B500001E08A439A60016880790128586802D1BF
:101B600001435960F0BD88435860F0BD0021016019
:101B7000017181714171704725490860704725499D
:101B800008607047224A012901D1106070475060F7
:101B900070478021C9050A68504008607047026894
:101BA0001D494368012B0B6802D11A430A6001E00A
:101BB00093430B6082680368012A03D18A68134348
:101BC0008B6004E0002A07D18A689A438A604A68D9
:101BD000006882434A607047486803434B6070471F
:101BE0000E4A0029116802D00843106070478143F3
:101BF000116070470A490A68104308607047094934
:101C00000968084000D00120C0B2704704000040BD
:101C10003C00004040000040100000401C0000401C
:101C20002800004024000040F0B502781F23012462
:101C30008178002921D0417852B2D50018262E4053
:101C4000FF27B740FD438907090EB140160004D5B0
:101C5000134A3607360F083E00E0124AB608B600AF
:101C600092191668354029431160007803409C4062
:101C70000D49400980000C50F0BD13409C400B48BA
:101C8000510989004450F0BD09490028086803D073
:101C9000042202430A6070470422904308607047A0
:101CA0001CED00E000E400E000E100E080E100E085
:101CB00010ED00E01206130A1A43130C1A4300BF7A
:101CC000094205D0830707D00270401C491EF9D194
:101CD000704700000022FFE71300103906D330B42C
:101CE0001400150010393CC0FCD230BC490700D3A9
:101CF0000CC000D504C0890002D30280801C0029DA
:101D000000D50270704710B50400080011000200F1
:101D10002000FFF7CFFF200010BD30B405004D407C
:101D20000122D20715404B180418240E2ED01B0E8A
:101D300032D0FF2C34D0FF2B3AD0E4180002090235
:101D400010431143000A090A9446C2B24A43000AEA
:101D5000C3B24B43000A4843110A5B181A43D2B27C
:101D6000190A091801D44918641E080A7F3C23DBAC
:101D7000FE2C08DAE40509061143634699416041E7
:101D8000284330BC7047FF20C005F9E728001B0E30
:101D9000FF2BF6D1D043F4E72800FF2CF1D1F9E76F
:101DA0004002F7D1FF2B01D14902F3D1E005E7E76B
:101DB000D8054902E4D0EDE743020020641CDFD1DE
:101DC0005B129B1CDCD9D805DAE770470122D207E9
:101DD0000118090E7F3910D449421F310FD4001861
:101DE00005D2C0011043C84000D5D0437047C001A0
:101DF0001043C84005D4404270470020704700425D
:101E0000F3D510007047704730B50100012502245A
:101E10004548490000F0B7F8002808D043498842F7
:101E200005D201E064004008FF28FBD8451E404869
:101E3000047401683F4A0A402D06290C11430160D1
:101E400030BD10B504006068FFF7DEFF2178384828
:101E5000426804239A438900194011434160A178E4
:101E6000026840239A438901194011430160E178D7
:101E7000026880239A43C9011940114301606178C7
:101E800002681F239A43C906C90E1143016010BDA1
:101E9000012101700721417000218170C170264924
:101EA0004160704725490028086803D00222024398
:101EB0000A6070470222904308607047204908601A
:101EC00070471F480068704702401A430A60704715
:101ED00001001C48FFE700780140080000D0012005
:101EE0007047174800E0016801798908C907FAD4EA
:101EF00070471548017802220A43027000E0C16869
:101F000010490978C907FAD50178FD220A40027004
:101F1000704707490A680D4B1340C005C0225204A0
:101F2000D2E70B49086070470024F40001FE00006E
:101F300000004040FF00FFFF40420F00040040400F
:101F4000080040400C00404080004040FFFF7FFE02
:101F50002C004040F446002804D4494200F013F815
:101F6000404260474042002905D45FD000F00BF8A2
:101F7000404249426047494200F005F84942604703
:101F800003460B43E6D40022030A8B420BD203091B
:101F90008B4219D243088B422ED2411A00D20146FD
:101FA000524110467047FF2209023FD012068B4271
:101FB00005D3121209028B4201D31212090203093E
:101FC0008B4219D300E0090AC3098B4201D3CB012C
:101FD000C01A524183098B4201D38B01C01A52416E
:101FE00043098B4201D34B01C01A524103098B4272
:101FF00001D30B01C01A5241C3088B4201D3CB005D
:10200000C01A524183088B4201D38B00C01A52413F
:1020100043088B4201D34B00C01A5241884200D37F
:10202000401A5241CFD201461046704708B500F021
:1020300001F808BD70477047F1B5FFB093B00C00D0
:102040001500EFF31080189072B600209A490870BE
:1020500000F0FCFB060092A8007800F087FC92A933
:102060000978884200D90800864200D906006846EF
:10207000067092486946097889004018416D491CEC
:1020800041656846007800280AD068460078012833
:1020900007D18B48007A0021894A117230BF107233
:1020A000A7E36846447087480570684640788549CC
:1020B000087101A800F072FC8248007A1D908248E5
:1020C0000088699081480068689000208AAB804F42
:1020D00081007A585A50401C0828F9DB7D48C069B5
:1020E00067907D48806966908025ED052868659039
:1020F00068686490A8686390E86862902869619055
:1021000068696090A8695F90E8691C90E86A5E90D1
:10211000286B5D90686B5C90288F5B90686C5A9020
:102120006E48006859906D48007C58906B48008B51
:1021300057906A48007F56906948007855906848E3
:10214000406854906648007A539065488089529060
:102150006348007F5190634800785090614800794F
:102160004F906048007A4E905E48007B4D905D48ED
:10217000007C4C90C44800684B90C34840684A902B
:10218000C148007C4990C048007D4890BF48007815
:102190004790BE4880884690BC4880684590BB48C0
:1021A000808944900022BA4C1005011990000B68F8
:1021B00016AE33504B6814AE33508B8B12AE335087
:1021C0000B8C10AE33508B8C0EAE33500B8D0CAE8F
:1021D0003350CB6A0AAE33504C23CB5A08AE33503F
:1021E0004C314B6806AE3350C96804AB1950521CD1
:1021F000012AD9DDB020000600684390A548006898
:102200004290A44840684190A24880894090A148EB
:10221000008A3F909F4840693E909E48007E3D90D6
:102220009C48808D3C909B48006B3B909948406B4C
:102230003A909848806B39909648C06B3890954892
:10224000006C37909348406C3690934800883590E6
:102250009148808834909048007B33908E48007C71
:1022600032908D48808A31908B48007E30908B4828
:1022700000882F90894880882E908848007B2D9078
:102280008648007C2C908548808A2B908348007E6D
:102290002A9083480068299081484068289008481F
:1022A000006827900648007A26907E48006800283B
:1022B0001AD17D4819E000BF0C0000205C0000200E
:1022C00000007040000020400400104000E100E0E9
:1022D00000E400E004ED00E0080090400C00304015
:1022E0002C0030405000304000201B9000226F48EE
:1022F0001A90142050431A994018910043687AAEFE
:102300007350036882AE7350836872AE7350C068B6
:102310006AAB5850521C082AE9DB8120C00540688E
:1023200025908120C005007B24908120C005408B32
:1023300023908120C005008B22908120C005406A37
:1023400021908120C005806A20908120C0050088EE
:102350001F90574800681E9068460078032806D1F1
:1023600054480068C021890501435248016000219A
:102370005148006850381990CE4A10651046026DD9
:1023800013688E008351491C121D02651429F6DB67
:1023900001A84078000101A989780143112904DDD1
:1023A00000204649086000F0D4FB424800684449D8
:1023B000086044480079434909782A68520A514024
:1023C000884359D10120FFF75FFC00F0F7FC0020A3
:1023D000FFF75AFC3C4E3D480078002800D083E0CF
:1023E0003B480068400632D43A480268384B1968C6
:1023F0005140C848384C2468056AAC421BD11B6860
:102400009A4203D0C44A12680A4014D13349096879
:102410008022520513000B400468224093420AD1E7
:102420008022D20411400068024091420FD01C4823
:10243000006880070BD51F49C8680209D01C80239B
:102440005B03984219D2CA6812098242FBD301A8E1
:102450004178090180780843112805DD012000F04A
:1024600078FB1F481549086068460078032803D1A7
:10247000104801680E400660BBE1C8680009194BAE
:10248000D3189842F9D1E2E70000404024004040D0
:102490000000A0400400F0400400D0400400E040F0
:1024A00010E000E0000C704051E5CC1A080000A0DC
:1024B000080000C0040000480008041014000020B8
:1024C0001800002000002040FFFFFFCF0C0000207C
:1024D00000E200E0680B0020640B0020600B00208D
:1024E000CCBCECFC0400F0FF0120C54908820020B0
:1024F0008880886000226F4919980865086D9300EC
:10250000CB580360521C001D0865142AF6DB69983D
:10251000BC490880689880490860002081008AAA28
:1025200052587A50401C0828F8DB67987949C861EE
:102530006698B54988616598286064986860639872
:10254000A8606298E8605F98A86160986861619887
:1025500028611C98A8621C98E8615E98E8625D9802
:1025600028635C9868635B9828875A986864A748D2
:1025700059990160589901745799018356990177C7
:1025800020305599017054994160539901725299C4
:102590008181519901772430509901704F990171CF
:1025A0004E9901724D9901734C99017498484B9959
:1025B00001604A9941604999017448990175243034
:1025C000479901704699818045998160449981813C
:1025D000002210050119900016AB1B580B6014ABBC
:1025E0001B584B6012AB1B588B8310AB1B580B84D2
:1025F0000EAB1B588B840CAB1B580B850AAB1B58BE
:10260000CB624C3108AB1B580B8006AB1B584B60A0
:1026100004AB1858C860521C012ADADD4398B02177
:10262000090608607B492898486000208860299A3C
:102630000A607949429A0A60419A4A60409A8A81BE
:102640003F9A0A823E9A4A613D9A0A763B9A0A6309
:102650003A9A4A63399A8A63389ACA63379A0A64FB
:10266000369A4A643C9A8A856C49359A0A80349A2B
:102670008A80339A0A73329A0A74694A319B1340EA
:102680008B82309B0B7667492F9B0B802E9B8B8018
:102690002D9B0B732C9B0B742B9B1A408A822A9ABE
:1026A0000A766149279A0A60269A0A721B995F4A3C
:1026B00002E000BF5C0000201160142141431A9A1F
:1026C000891882007AAB9B584B6082AB9B580B6099
:1026D00072AB9B588B606AAB9A58CA60401C082842
:1026E000EBDB8120C0052599416024990173239972
:1026F00041832299018321994162209981621F9926
:1027000001801E984A4908603F48007800283AD165
:102710003B4803E004ED00E000E100E00188082907
:1027200031DD018881292EDC6946497800292AD0CB
:10273000018809220A40092A02D1E96989051FD4C2
:10274000018811220A40112A02D1E969490517D4EA
:10275000018821220A40212A02D1E96909050FD402
:10276000018841220A40412A02D1E969C90407D4FB
:10277000008881210140812905D1E869800402D5C2
:1027800001202C4908602C4D68460078032802D1AE
:10279000286806402E601D9828490872684600780F
:1027A000032801D1012100E00021002000F0F0F910
:1027B0001D98C0071DD5FFF70DF9694608706846DA
:1027C00000780B2812D01E48008800070ED5E86854
:1027D0001C490968081A0002001200D5404221284D
:1027E00004DAE8682D30EA689042FCD215201649D8
:1027F0000870189880F3108800207FB014B0F0BDE6
:102800000800104804001040080090400C003040C0
:102810000000404010E000E00400F0400400D04020
:10282000BFFF00000400E04000007040000C70405A
:10283000080000C000E200E0040000480000204062
:10284000C0000020180000200000C040F8B5294D4D
:10285000002029680A4640321378D279934347D141
:102860004A6E120E44D13E22525C002A40D1431ED1
:1028700021488D6A467A1A460024F600AD190926C9
:10288000F606376900887D1907070120002F06DA50
:10289000F314CB189C6D631B1B021B1228D4072753
:1028A0003F02C9190969CF0103D54A1B120212124E
:1028B0001ED401252D07002B06DA002A0ADA7560DE
:1028C0000E48856003200AE011200006044374606E
:1028D000002A03DB2943084600F0BEFA022005491E
:1028E000096840314A78002A02D00020487003204D
:1028F000F8BD00003C040020C0000020400000485B
:1029000080B500F0DDF9FFF7BFF8E120400200F0EC
:10291000CBFA1F4800F028FB1E4905220A708A7076
:10292000002800D0FEE700F061FB022000F05EFB13
:10293000002000F074FB022000F078FB00F0BCFBEC
:10294000002803D0022000F06AFBFEE700F0B0FC94
:1029500000F03CFC002200210320FFF76DFB00F09B
:1029600004FD0128F2D100F0E7FCEFE780B50A484A
:102970000078002807D100F0DDFA002803D100F02C
:10298000DEFA002801D0002002BD032002BD0000B5
:10299000E42F0510C5000020C60300200F210E4AB9
:1029A00013681B090B404370136819408170D2688B
:1029B00042600121094B9A4201D1022200E001222A
:1029C00002704278002A00D1417005490988491CEB
:1029D00089008160704700001C00904041A0000207
:1029E000140010407FB504000D0016006846FFF784
:1029F000D5FF684601782170417829708078307061
:102A00007FBD704710B5C20018231340FF249C40BF
:102A1000E2438907090E9940030004D559481B0772
:102A20001B0F083B00E0A0489B089B00C0180368F0
:102A30001A401143016010BDFEB5012452480178CF
:102A400001220A4302700026504806600325FEF763
:102A5000C1FF6946087068460078002801D16D1EE4
:102A6000F5D16846007806282FDB684600780125F6
:102A70000B2825D06846FFF791FF68464178090189
:102A800080780843122800DA00258848006800078B
:102A900005D4002D14D0012000F05BF810E0844F25
:102AA000F868844E3168081A28380002001200289D
:102AB00006DD002D02D0012000F04BF830683860B0
:102AC0007D48047000F0A3F9FEE70120FEBD10B5BB
:102AD00000220021A64804E00B00415C5918491C63
:102AE000C9B2435C002BF7D1CB1C202B12DA022396
:102AF00043542123441863700823A3704318DA70E9
:102B00009C4A80235B02401880B218431060106812
:102B10001840FCD110BD70B500210023944A04E098
:102B20001C00D35CE3185B1CDBB2D45C002CF7D137
:102B300002253524DE1C202E05DAD554D6187470F3
:102B4000B070D218D1708C4A157054709070D170DA
:102B500070BD70B580214902874B9CB20C43854AF9
:102B6000002804D01460106808400AD0FBE7987869
:102B70009D78FB262E409E70146014680C40FCD19A
:102B8000987070BD1CED00E008002040140000208B
:102B9000F3B58BB003A800BF81A11C2200F04EFF4B
:102BA0006846FFF7FBFE734C01250BA80078002850
:102BB00058D003A84421817370490A780123134334
:102BC0000B704C21C17220210172B22141745B2132
:102BD00001756B498B6B6B4A1E0C964209D1C67D01
:102BE0008F273740C775C67D1B0170271F403743AD
:102BF000C7754B6B1E0C964209D14679CF273740DB
:102C0000477146791B0130271F40374347710968D8
:102C10000B0C934208D1C27DFC231340C375C27DC7
:102C20008907890F1143C175C17AFB220A40C2721C
:102C300069464A7812018E781643112E06DDC17D51
:102C400004220A43C275C07DFFF765FF280403A96B
:102C500089B20143216021680140FCD1112E01DDC0
:102C6000FFF735FF154988890028FBD00CA80078AC
:102C70008D8117220A8000224A60002807D06068F0
:102C8000102162680A40102303409A42F9D00BA831
:102C90000078002802D015203B4908703B483C4989
:102CA00008600DB0F0BD000000E400E0C0000020AE
:102CB00004000048180000200C0000200C00104800
:102CC00080B508203349088003210120C043FFF765
:102CD00099FE03210020C043FFF794FE032100204A
:102CE000FFF790FE03210120FFF78CFE0321042053
:102CF000FFF788FE03210520FFF784FE0021062050
:102D0000FFF780FE03210720FFF77CFE03210D2043
:102D1000FFF778FE03210E20FFF774FE03210F203A
:102D2000FFF770FE03211120FFF76CFE0321122034
:102D3000FFF768FE03211320FFF764FE0321142030
:102D4000FFF760FE03211520FFF75CFE032116202C
:102D5000FFF758FE03211720FFF754FE0121012041
:102D6000FFF716FF0C480D49086062B601BD000070
:102D7000D40300200C000048540B00200800204021
:102D8000B007001055AA00000000C040CCBCECFC0D
:102D9000140000200400104066000E002000904047
:102DA000023F00023E30023C20023B4C023A40020D
:102DB00039B202345B02350B021C5300EFF314826C
:102DC000EFF30981002080F31488BFF36F8FF0B513
:102DD00043464C4655465E466746F8B4164CEFF3FC
:102DE0000883236006B4154C2068154C2060154CF0
:102DF0002068154C2060154C2068154C2060154C3F
:102E0000276800202060BFF34F8F30BF27600A4C37
:102E1000246884F3088882B003BCF8BC9846A146B5
:102E2000AA46B346BC46F0BC04BC80F3098881F3D3
:102E30001488BFF36F8F10470800002004ED00E0F6
:102E4000600B002024ED00E0640B002000E200E0B5
:102E5000680B00200800204030B5EFF3108172B6F7
:102E60000922D2061269FF25821A120214120C4A94
:102E700091351368AC4208DC0122120690431A46D1
:102E80004032D479DF252C40D471C2010724D20905
:102E900024021B191A61034A906081F3108830BD27
:102EA0003C0400204000004878B585B004000121B2
:102EB0000920FEF785FDFEF7EBFD25498000081887
:102EC000001F00680090FEF7E3FD6D462149800079
:102ED0000818001F006828710026AE716E716846E0
:102EE000FEF7DCFDFEF7D4FD1B4980000818001F2B
:102EF00000680090FEF7CCFD184980000818001FFC
:102F0000006828716846FEF7C9FD0294032002A9F3
:102F100008714871CE804E7208720120887202A832
:102F200000F0C0FD002000F064FE012000F0AEFDC6
:102F300006B070BD80B5802000F04DFE10E080B579
:102F4000082000F048FE012800D0002002BD00004B
:102F5000A83A0510AC3A0510B03A0510B43A05107D
:102F6000401E8041C00F02BD10B5837F01220024A6
:102F700092024168082B03D94224914202D310E007
:102F8000914201D242240CE001463422064800F06E
:102F90004DFE00F05FFE002801DA482401E000F059
:102FA00099FE204610BD0000200B002038B50E4DC4
:102FB0002C000C3C002811D0022807D00ED2FEF7BE
:102FC00067FD0C2148432818083805E0FEF760FD2E
:102FD0000C2148432818001F006832BDFEF758FD39
:102FE0000C214843205832BD6C3A05101CB5040032
:102FF00001210120FEF7E4FC2000FFF7D7FF00903D
:10300000684606210171012181714171FEF746FD7B
:103010002000FFF7CBFF0021FEF7B4FD13BD80B504
:10302000FFF7C4FF0121FEF7ADFD01BD80B5FFF73D
:10303000BDFF0021FEF7A6FD01BD80B5FFF7B6FF7D
:10304000FEF7A7FD01BD70471FB50022684602705C
:10305000824C834921608348606001A87D234370CE
:103060000D2303704280027102228271437101229A
:10307000C271027242720968884701220D216846B6
:10308000FEF7E8FB200008302168896888476068FF
:10309000006880471FBDE0B568461021017004211B
:1030A00001710822C27001224271427081706E4922
:1030B00009680968884707BD00B58BB009A800BF3B
:1030C00075A10CC90CC007A875A10CC90CC009AA30
:1030D0000621002000F072FE010050D104210120E1
:1030E00000F070FE00F072FE010048D106A80190C9
:1030F00005A8009005AB9B1C07220021012000F0D1
:1031000069FE01003BD107A8039007200290002030
:1031100001900720009000236846828AC18A00201F
:1031200000F070FE01002AD1002004904F48039067
:103130000020029010200190072000900023002220
:103140000121012000F070FE010018D1FFF77CFF83
:10315000FFF7A1FF00F0C3FE010010D100F0AAFFAD
:1031600001000CD100F028F9C821012001F01CF960
:10317000010601D0C0B202E000203D4948700BB00A
:1031800000BD000000B589B007A800BF46A10CC96A
:103190000CC03849122001F014F900200690059067
:1031A0000490039007A8029008200190002000904E
:1031B0000123F022D200C821C90001F00DF9002836
:1031C00002D00220FFF72BFF09B000BD3EB500245E
:1031D000274D2878002802D0FFF7D4FF2C7068789C
:1031E000002818D06C70C821012001F0DDF80028FB
:1031F00001D001206870A86800280CD00020FFF7DB
:103200001CFF684600F058FE002802D1684600F016
:103210001FFF00F057FEA878012802D1AC7000F023
:1032200005FF37BD1248012282608180704780B55A
:103230000F48002181600122027081800020FFF789
:10324000EEFE00F08BF801BD80B5080001F05BF8E0
:1032500001BD012801D10649487070471C000020BB
:103260000803002048030020D003002040E20100B2
:10327000C4030020AC03002080B51A00029BD2B228
:1032800000F00CFA01BD022900D0704780B5100093
:1032900000F0E4FA01BD0000123400E180020000F9
:1032A000426C75654E52470009426C75654E524737
:1032B00010B501F0B3F81E4C4721206849014118B0
:1032C000097B002909D1A0300079C00729D001F07D
:1032D00033F901F069F901F075F901F0F9F92068A5
:1032E000014640310A78C9798A4319D13E21095CE7
:1032F000002915D10F490A88120711D50922D206D3
:103300001269497A836AC900591809231B02C01837
:10331000806D801A00020012814201DA01F03AFA4F
:1033200010BD01F0E3FA01F001FB01F0CDFBD0E7A5
:103330003C040020C0000020BFF34F8FD448D54983
:103340000860BFF34F8FFEE70020D34948714883E0
:10335000C88308848881C8814872704780B5CE4888
:1033600081784170FFF7F0FF01BD10B5CA4C20789D
:10337000002807D00020207001F068FC9321A08C69
:1033800001F06CFC607810BD80B5103001F07BFC62
:1033900001BD10B500E0521E130609D00300581CF1
:1033A0000C00611C1B782478A342F4D0012010BDCE
:1033B000002010BD00000000F0B58DB00AA800BFCD
:1033C000A1A11CC91CC00220FFF710FE06AC66209C
:1033D00020709A2060700C20A0702020E0700020E7
:1033E000207108266671A720A071BA20E071E32041
:1033F0002072112060720620A0728527E772C0201B
:103400002073F72060739720A0738A20E073A24D89
:10341000102206A92800383000F008FC28001030DF
:1034200000900A23012229003831022001F05AFCC1
:10343000002837D1662020709A2060700C20A07080
:103440002020E070002020716671A720A071BA20B2
:10345000E071E320207211206072A672E772C02032
:1034600020738C2060732E20A0731220E073102232
:1034700006A92800483000F0D9FB2800123005903A
:10348000002004901020039004200290002001905E
:103490000220009008232A0048320221288A01F0E5
:1034A0003CFC002800D0CCE0662020709A206070A0
:1034B0000C20A0702020E070002020716671A720F1
:1034C000A071BA20E071E320207211206072A67210
:1034D000E772F0202073992060730F20A0732120E1
:1034E000E073102206A92800483000F09FFB280056
:1034F00014300590002004901020039005200290C5
:10350000002001900E20009009232A004832022159
:10351000288A01F002FC002847D10AA8039009205C
:10352000029000200190092000900123AA8A298A94
:10353000A88C00F067FC002837D1662020709A2004
:1035400060700C20A0702020E07000202071667157
:10355000A720A071BA20E071E320207211206072D0
:10356000A672E77280202073AA2060739120A07356
:103570002620E073102206A92800483000F056FBF0
:10358000280016300590012004901020039005209B
:103590000290002001900E200090D4232A0048328F
:1035A0000221288A01F0B9FB00284AD16620207048
:1035B0009A2060700C20A0702020E0700020207104
:1035C0006671A720A071BA20E071E320207211205B
:1035D0006072A672E7726020207357206073DC204F
:1035E000A0732B20E073102206A92800483000F0B9
:1035F0001DFB280018300590002004901020039037
:1036000004200290002001901220009004232A0040
:1036100048320221288A01F080FB002811D18D4810
:1036200004908D48059004A8039002960020019014
:10363000009601236A8A298AA88C00F0E3FB0028FF
:1036400000D047200DB0F0BD0200000000000000D7
:10365000000000001FB5C64C608B002811D0200070
:103660000C30039004200290002001900420009070
:103670000123228B218AA08C00F0C4FB0020607102
:1036800060831FBDBA4A01235371D0819181704775
:103690000400FA050CED00E054030020F8B584B0F6
:1036A000B34CA0840025A08A401C814228D1E5703B
:1036B000257118790006D97809044018997809020B
:1036C000401859784018E062187A0006D979090440
:1036D000401899790902401859794018A062197860
:1036E000012901D0032901D1012100E00821217223
:1036F0006063A5832563E583042001F0A7FAA6E0B3
:10370000208B861CB1421AD1E583A581E581210079
:103710000C310391042102910195009101230200D3
:10372000218AA08C00F06EFB002802D10220FFF756
:1037300076FC607A032801D01720E08487E0E08AD5
:10374000401C8142FAD1684602700B2A05DB10004A
:103750000A3800E0401C9042FCDBE08C001F019026
:10376000C110090F081800110390C0010290A08B2E
:10377000029988426BDA0146E27918006B461B78A1
:103780000EE0A84F7D5407E0E76AB942F9D2471C22
:103790008E1BBE5DA34F7E547E5C56403200491C9A
:1037A000A68BF7183F1FB942EEDBC318DB1E1E784D
:1037B00056405A7872409E785640E671A183238C19
:1037C0005A1CE18B0778F6B2BE4232D1039E360115
:1037D0008019C67836028778F6196684668CB142FD
:1037E0001FD1491CE1834078012806D0761C03983C
:1037F00046433001E26A904228D3A181E581A68B3D
:1038000030000299FEF7BCFB002907D0E06A216B6B
:10381000401A0299884219D2864217D30120A0711A
:1038200014E06183002B00D10022E283E18BF020C1
:1038300006E06183002B00D10022E283E18B0F20A0
:10384000FFF720FFA583207AFFF704FFE57105B09D
:10385000F0BD00001005F8001007E7FFF8B584B0D0
:103860000400434DA879002800D17EE001F074FAED
:103870000100200001F079FA0400E88C001FC1105B
:10388000090F081800110001001DC000C110090F28
:10389000081800116B214843FA218900FEF770FBDC
:1038A000401CA04261DA0027AF71AF71688C288498
:1038B000A86A296B4018686300240021594E04E06F
:1038C0001034A4B2686B10306863AA8B944222DA79
:1038D000686BAB6A10339842F2D0111B102904DBDD
:1038E000311901F0E1F910220FE03119C978090608
:1038F00032199278120489183219527812028918F2
:10390000325D891801F0BFF904223119686BFFF7A5
:1039100040FD0100D4D0002906D1286BA98B4018A6
:1039200028630020AF8300E03C20E88128000C30B1
:103930000390042002900197009001232A8B298A8A
:10394000A88C00F05FFA286BE96A88420DD3022048
:10395000FFF76CFB34493548FFF716FD002134486A
:10396000FFF712FD01202870A87005B0F0BD00001F
:103970005403002038B504002E48C184417A022245
:103980000A434272417A01220A434272C08C001FEC
:10399000C110090F091809110901091DC900FA25EB
:1039A000AD00C810000F401800116B2148432900DA
:1039B000FEF7E6FA401D68431F49FEF7E1FA0200F0
:1039C000C82000010090002392B2110026E038B513
:1039D00004001848417A01220A434272C08C001F39
:1039E000C110090F091809110901091DC900FA259B
:1039F000AD00C810000F401800116B21484329008A
:103A0000FEF7BEFA401D68430B49FEF7B9FA010004
:103A1000C8200001009000238AB289B2200001F082
:103A2000AAF931BD44040020AA5555AA00F8051092
:103A30000008041054030020E204000070B4103A9F
:103A400003D378C9103A78C0FBD2530701D318C901
:103A500018C001D508C908C0D20704D30B88038059
:103A6000891C801C002A01D50B78037070BC70473C
:103A70008B0701D18307E1D0124205D00B78491C96
:103A80000370401C521EF9D1704770475E490028F0
:103A9000086803D0012202430A6070470122904364
:103AA00008607047F0B5040021680125574E58485A
:103AB0007269D2082A4001D1090100E0C900FEF76D
:103AC00062FAC10931810904490A401A401C4008C0
:103AD00081B23F2902DD3F388006800E30736020BE
:103AE0009F21327C0A4023795B01034013433374E6
:103AF0003278114062795201104008433070082139
:103B0000F720327C0240A379DB0008271F401743CF
:103B1000377432781040A279D200114001433170DD
:103B2000E179002907D1FD20317C014031743178E1
:103B3000084030701CE002200229317C0BD1014387
:103B40003174FB21327C0A40327432781043307079
:103B5000307801400BE0014331740421327C0423AE
:103B6000134333743278104330703078014331702E
:103B7000706928490140207A28404002084370615A
:103B8000706925490140207A400828400002084316
:103B90007061706921490140607A284080030843C0
:103BA000706170691E490140607A40080540E80371
:103BB000084370611020EF21327C0A40A37A1B0178
:103BC00003401343337432781140A27A120110403B
:103BD00008433070F0BD01001248002901D500688B
:103BE00000E0808AFFE70140080000D00120C0B259
:103BF00070470D490A78C7231340C0003822FFE7F9
:103C000002401A430A707047300030401C003040B8
:103C10000000127AFFFDFFFFFFFEFFFFFFBFFFFF67
:103C2000FF7FFFFF040030403400304010B5040037
:103C3000FFF71EFF200010BD10B5040008001100A2
:103C400002002000FEF736F8200010BD80B501F01C
:103C50009FF802BD70B50025ED4301F0BCF80128C6
:103C60002ED0002318490322888BFF24401E1043C6
:103C70008A7F4D3462438218088B282460431218CF
:103C8000488B3024604312180846203040782C249A
:103C9000604310180D4A181884184869A0420DD1C5
:103CA0000B4884420AD90D6901F095F8C1B2284643
:103CB00001F094F801F0C2F9401B251A284670BDA6
:103CC000FF23B533CEE70000200B00203919000098
:103CD000580A0000F8B506263248402505603248EB
:103CE00000270780A9050920C00641602F4A91607E
:103CF000016801602E48032104694269601E08437F
:103D00003946401CFFF798FF01F065F8C1B2204624
:103D100001F064F801F092F901F092F901F0E2F992
:103D2000244917208881244C206842190146577085
:103D3000FA2088622820107001F0D5F9012805D1F9
:103D400020681022403001781143017001F0CDF954
:103D5000012805D12068802240300178114301708C
:103D60002068014640300278324302700020C04390
:103D7000086601F0BDF901F0C7F901F0F7F9206814
:103D800001212030017707214177012001F030FA2D
:103D900001F050FA00F09CFC0248803805600221D6
:103DA0000160F8BD80E100E0C00000204000004854
:103DB000200B0020000010483C04002010B501F04A
:103DC00093FA10BD10B501F013FA10BD10B501F053
:103DD00019FB10BD7CB5069D079C002805D0860701
:103DE00005D1460703D4060701D442207CBD002933
:103DF00003D0012901D00229F7D10095019401F0E7
:103E0000C9FB7CBDF0B585B084460AA8F0C86846F9
:103E10008581C68103A8019002970094604601F055
:103E2000B7FC05B0F0BD7047FFB58DB0179F169D6C
:103E30001446060004D0012E02D0422011B0F0BD7D
:103E40000E98002801D00128F7D1E81F0A28F4D2E3
:103E5000102FF2D8AF42F0D31898002801D00128D3
:103E6000EBD1144919988842E7D81A98002801D054
:103E70000128E2D101F039F9012804D0109820433B
:103E800006D01120DAE7022CD7D810980128D4D810
:103E9000684606700E9941700473109941738570DD
:103EA000C7701899C1711998029068461A9901F063
:103EB00035FEC3E73F420F0080B57A49096889683B
:103EC000884702BD80B56846774909688968884790
:103ED00068460078012801D17449087001BDF8B521
:103EE0008AB01B2706AC2770C5206070D520A07053
:103EF000A520E0700226267100206071B420A07118
:103F00009A20E071E1202072112060723A20A072A4
:103F1000CF20E072802020736E2060733620A07363
:103F2000E673634D102206A928000C30FFF77EFED1
:103F30000095E1480378012229000C31022000F0AD
:103F4000D1FE00286FD12770C5206070D520A070E9
:103F5000A520E070267100206071FC20A0718F20E8
:103F6000E071E1202072112060724A20A072CF20FF
:103F7000E072A0202073782060733E20A073E220BE
:103F8000E073102206A928001C30FFF74FFEA81C82
:103F900005900020049010200390002002900190D2
:103FA0001020009001232A001C320221288800F0F2
:103FB000B4FE002837D12770C5206070D520A070CE
:103FC000A520E0702671002060713620A071AC2021
:103FD000E071E1202072112060724B20A072CF208E
:103FE000E0728020207367730A20A0733420E0738E
:103FF000102206A928001C30FFF718FE281D059086
:1040000000200490102003900420029000200190D2
:104010001220009006232A001C320221288800F07A
:104020007CFE002800D047200BB0F0BD00B585B065
:10403000012069460874D54804A903910121029121
:10404000002101910121009101234288018851E161
:1040500080B586B004A9426853420B70426853424F
:104060001A124A7002688A7002681212CA70826854
:1040700053420B7180684242101248710C48039100
:1040800006210291002101910621009101238288DD
:104090000188BF480088FFF7B5FE002800D0472000
:1040A00007B000BD1C00002020000020C603002037
:1040B000E40A0020F8B590B00CAC1B202070C5209D
:1040C0006070D520A070A520E0700220207100272C
:1040D0006771D020A0718220E071E221217211214C
:1040E00061727726A672E421E172402121731A21C0
:1040F0006173A0734220E073A44D10220CA9280024
:104100000C30FFF793FDA81D00906B484378012207
:1041100029000C31022000F0E5FD002862D11B20AF
:104120002070C5206070D520A070A520E07002200E
:1041300020716771E320A071A920E071E220207254
:1041400011206072A672E420E072202020735520B6
:1041500060732E20A073A320E07310220CA9280006
:104160001C30FFF763FD28000830059004971020ED
:1041700003900420029001970220009002232A005D
:104180001C320221E88800F0C8FD00282AD10AAEBE
:104190000E2030700020C04370707E4870803771F0
:1041A0007771B7717C4869468884022209A9280082
:1041B0002C30FFF73BFD09A8801C089007971020C2
:1041C000069005970120049003970AA80290072003
:1041D000019000902B002C3301222989E88801F0FE
:1041E000D3FC002864D11B202070C5206070D5202E
:1041F000A070A520E0700220207167710B20A071D3
:104200008420E071E2202072112060728B20A07265
:10421000E420E07280202073C42060732020A0730B
:10422000CD20E07310220CA928001C30FFF7FEFC03
:1042300028000A3005900497102003900420029073
:1042400001970220009003232A001C320221E888F3
:1042500000F063FD00282BD10F2030700420C043F4
:1042600070709E208001708037717771B7714A48F5
:1042700069468884022209A928002C30FFF7D6FC61
:1042800009A8801C08900797102006900597012028
:10429000049003970AA802900720019000902B0039
:1042A0002C3301226989E88801F06EFC002800D0D7
:1042B000472011B0F0BD00004004002001B584B0DB
:1042C000324804A9039102210291002101910221A7
:1042D0000091012302890CE001B584B02B4804A9A8
:1042E00003910321029100210191032100910123F7
:1042F0004289C18826480088FFF784FD002800D045
:10430000472005B000BDF8B520498A88521C90426C
:1043100008D101A8FFF7D0FD002829D101A8FFF797
:1043200097FE25E01D4A12680B895B1C98420ED14E
:104330006846916A884700281AD100991848FDF705
:10434000ECFCFDF743FD00B2FFF7B8FF10E0498930
:10435000491C88420CD16846516A8847002807D119
:1043600000991048FDF7D9FCFDF730FDFFF7B4FFC9
:1043700007480088002806D001F02EFC002802D053
:104380000220FEF74CFE05B000BD0000E40A00204C
:10439000C80300202F27000004290000D0030020BC
:1043A000000020410000C84270B50D46044600F0F0
:1043B000D3FC294601F016FC0146204601F024FCFE
:1043C00070BD10B50A461F2801D9122010BD014644
:1043D000104601F027FC10BDFFB587B0109D159E5B
:1043E000169C01930295009407A807C81F46334600
:1043F00001F046FC00280ED11398149903AA0694E4
:1044000043C21198129901900095029107A807C81C
:104410003B4601F063FC0BB0F0BD7047F0B50026E1
:1044200093B0701E0E9041484149006837464418C9
:104430000920C006006905022D0A72B6A06921464E
:10444000281A0002000A223101F064FC6169A561AA
:1044500040186061354800684030C1798A0663D4ED
:1044600020221143C17162B6256814E0A868616911
:10447000401A00280ADCBA0001A8761C85507F1C6F
:10448000F6B2FFB2287B01F05DFC03E00E99884292
:1044900000D20E902D68A542E8D1204608300025B4
:1044A0000C901830129018E0AF0001A8761EC15988
:1044B000F6B2204601F084FC01A8C1590C9801F025
:1044C0008FFC01A8C059007B3A2804D21298129997
:1044D0000078401E08706D1CEDB2002EE4D12068FB
:1044E000A04217D03D256D04284601F080FC01460E
:1044F0000E98814201D8284601E001F081FCA169B3
:10450000081800020121000A09064018FEF7A4FC61
:1045100013B0F0BD72B600200449072209681202E8
:10452000891808610349886062B6F1E73C040020FD
:10453000F40600004000004870B572B6184D4023E4
:10454000286801464030C2791A43C27162B6154EDE
:10455000881901F065FC002812D12868801901F043
:1045600066FC04460AE0204601F064FC002807D1FE
:1045700028682146801901F08DFC2468002CF2D1B6
:104580002868801901F04CFC012807D072B6286811
:10459000BF224030C1791140C17162B670BD0000C8
:1045A0003C040020E406000010B501F095FC01F089
:1045B00095FC00F010FC012801D100F0F8FB01F09F
:1045C0008FFC10BDFEB572B63F4D0823286801462A
:1045D0004030C2791A43C27162B6002011276C467E
:1045E000FF0182005218D219D26F52884300401C3A
:1045F000C0B2E2520328F4D372B6C8190021866E05
:10460000816662B6F00702D0002001F08DFCB00791
:1046100002D5012001F088FC700702D5022001F0CC
:1046200083FC300702D5032001F07EFC002623E046
:104630000D281AD2211D254A800012582046904785
:10464000002812D072B62868F7224030C179114094
:10465000C17162B630E03A2807D21C49231D8000A0
:10466000E8390A58194620469047029829684018A8
:10467000C019C06F2188018071006846415AB0009E
:1046800002902A688018C019C06F028892089200B0
:104690001418028808348A420ED0A27891070BD0F1
:1046A0009107890F012901D104460834A0788008B8
:1046B000C006E078CFD5BBE7761CF6B2032EDBD37D
:1046C00001F034FCFEBD00003C040020182405105D
:1046D000F8B52C4F3C68206E5C34401C002814D088
:1046E000002529480023C07B00283ED00926F60675
:1046F0002648002D1CD000210A460B464169521C59
:10470000994204D1002902D004E00125E9E7204BB9
:104710009A42F2D32160006960603069A1680002AA
:10472000090E000A09060143A16001F019FC1DE011
:104730003169A2680902090A150E08D0018BC90760
:1047400012D04169216000696060E37210E0881A4C
:1047500000027D2300121B03984205DD100E0006A7
:104760000843A06001F0FCFBF8BD6360002DFBD0A6
:1047700003CC01F003FCFA2001F042FB39688862A7
:10478000F8BD00003C040020400B00200000104851
:1047900088130000FEB5524800885823410751484D
:1047A000490F026805204002101842695943541805
:1047B000A27825695207520F216A0092022A01D07D
:1047C000052A20D12A0404D46279920701D1002954
:1047D00019D0A66A444A2B0443D563799B0715D0A8
:1047E000676B77800120C0038543256100F0F3FAF1
:1047F000012809D01F217878014204D0218A890438
:1048000001D5001D7870FEBDFF21F4E70029FAD024
:104810001542F8D10A7C006AD206D20E921C1718F3
:10482000B8B201907080204601F0ECFB0120C0037B
:104830008543256105110098052800D1AD0000F0E1
:10484000CAFA01280BD01F217878014204D02169CF
:10485000294201D0001D787001987080FEBDFF21B3
:10486000F2E7708801235B07C01863799C469B07B9
:1048700004D0636B834201D0012700E00027666B00
:10488000864202D02388834212D1002912D01542D9
:104890000ED1012300290ED086420CD024888442F8
:1048A00009D00968002906D0154204D1012103E08E
:1048B0000023EFE70023002162469206920F03D007
:1048C0000022002F06D101E00122FAE70B43C5D0F8
:1048D000002AC3D00178102211430170FEBD0000F0
:1048E000C00000203C040020600600001FB50E48F8
:1048F0000468AE34E078010612D5A178C9070CD05F
:10490000800708D5042069460873684601F0BCFB9F
:10491000022001F0E5FB0020E0704006400EE07050
:1049200001F006FC1FBD00003C040020F0B58BB078
:10493000002064490290E3200A68C000141872B68F
:1049400010464030C57902231D43C57162B6254625
:104950004035287AC0077DD0052040021018002677
:1049600087694AE071017A5A002A44D0C919069130
:1049700009694A021FD48A0227D5022104910699A7
:10498000012309880905090D03911B21890141189B
:10499000C97E89070FD51121C9010830401823228B
:1049A000C06F022101F0C6FB010004D0039A8A8087
:1049B000049801F01DFC069800880090069801F00C
:1049C0002BFC009801F0A6FC15E0480713D50698CB
:1049D00000880005000D01F0ABFC002805D1069809
:1049E00000880005000D01F0C7FC06990420096944
:1049F000814306980161761CF6B23248AC2100680A
:104A0000095CB142AED801F05BFE20462430064678
:104A100001F006FA012802D0012001F01BFF204618
:104A2000183001F0FDF9012802D0002001F012FF3A
:104A30003C34204601F0F4F901280FD002A92046A9
:104A400002F006F80420029902F019F80028F0D0CC
:104A5000204600E034E0029902F037F8287A000698
:104A60002ED5304601F0DCF9012829D1002002F0D2
:104A70003FF8A98B23314909491CC9B2FDF783FAD4
:104A800000281DD00F4D044628681121C9010830A7
:104A90004018422601233822C06F314601F04AFBFC
:104AA00001000DD000228A80CC80304601F0A0FBAE
:104AB0003B212A68490151180A78802082430A70F4
:104AC0000BB0F0BD3C040020F0B595B00027069770
:104AD00072B65C4E042230684030C1791143C17116
:104AE00062B602F023F800256BE00F21C9014018DF
:104AF000C16B2846782250430C1860D0218A0029C7
:104B00005DD0204660301190C07BC00651D50805AD
:104B1000000D21461E310090102212910DA8FFF7C2
:104B200085F807A9204602F003F800282ED0009847
:104B300002F046F80B9002200590009803900320A5
:104B400004901B21306889014118497E012389079F
:104B500012D51121C901083040181322C06F02215B
:104B600001F0E8FA010007D0039A8A80049A8A715A
:104B7000CF71059801F03CFB0B983A280CD01198A6
:104B8000EF21C07B08401199C87312E007A9009873
:104B900002F01DF80B90EFE710220DA91298FFF715
:104BA00045F872B63068FB224030C1791140C171BE
:104BB00062B6207A002802D0204602F00FF86D1C61
:104BC000EDB23068AC21095CA9428ED81E4D306828
:104BD000401901F025F900282DD1306806A94019A7
:104BE00001F036FF0698808802F0C0F80400EED08D
:104BF00006988168097B0529214604D002F0DAF87D
:104C0000FF2803D010E002F04FF916E00698816803
:104C1000097B03290AD06E21095D090706D500909A
:104C20000194684602F048F9002806D030680699D9
:104C3000401901F04AFF15B0F0BD0121069802F0BD
:104C40003DF9C4E73C0400207C07000002490968E4
:104C50006831C880002070473C04002010B502F085
:104C60004BF910BD1C4909681C4A91420AD11C49E4
:104C70003F220A814006000C886111200880088AC2
:104C8000C007FCD57047144A1268144B9A420AD1E7
:104C9000134A3F23138180089061116433201080F0
:104CA000108AC007FCD570470B4A12680B4B9A421A
:104CB00011D10B4A3F23138180089061086810646A
:104CC0004868506488689064C868D064CC201080BC
:104CD000108AC007FCD5704714000020CCBCECFC47
:104CE0000000104070B586B014461D460A460346C3
:104CF0006946881C0A9E02F003F9002804D1012CA1
:104D000004D0022C02D0422006B070BD23462A46B1
:104D10006946304602F008F9F6E7F0B587B01C4660
:104D20000B46054600A9023101A80C9F0D9E02F01A
:104D3000E7F800280ED16846058084828775C6751D
:104D40000E9901760F9941761099817669461198EE
:104D500002F09AF907B0F0BD10B50920C00600694D
:104D60000002000A02F02CFB10BD401AC0108100A6
:104D70004018001270473EB56C46069D2080618049
:104D8000A280E3802581684602F02CFB3EBD70477F
:104D9000A446521E08D303780C78401C491CA34239
:104DA000F7D0181B6446704700206446704780B5F2
:104DB00002F092FB01BD80B502F0BAFB02BD80B5E6
:104DC00002F04CFC02BD80B502F084FC02BD80B54F
:104DD00002F0AAFC02BD012070477047F3B581B014
:104DE000934A012101A802F0F9FC924C04222060B0
:104DF000432101A802F0F2FC11272168FF01C91923
:104E000008670422432101A802F0E8FC216804227B
:104E1000C9194867FF21843101A802F0DFFC21682D
:104E2000854DC9198867A97F0C2201A80B3102F0B2
:104E3000D5FC05262168760289198863A97F20227E
:104E400001A802F0CBFC2168102289198862A97F91
:104E500001A802F0C3FC216828228919C862052133
:104E600001A802F0BBFC21683022891948630521A2
:104E700001A802F0B3FC2168FF22891908630132FE
:104E8000012101A802F0AAFC2168582289190864AE
:104E9000A97F01A802F0A2FC21682022891948619B
:104EA000A97F01A802F09AFC2168782289198861FB
:104EB000A97F01A802F092FC0F212268C9015118B4
:104EC000C8630722032101A802F088FC0F21226891
:104ED000C901511808642822012101A802F07EFCB2
:104EE0000F212268C90151188864AA8B012101A8E9
:104EF00002F074FC0721226809025118C866298B48
:104F0000282201A802F06AFC072122680902511830
:104F10004866698B302201A802F060FC07212268F4
:104F20000902511888660C22012101A802F056FCE2
:104F300021680C2289190861012101A802F04EFCA8
:104F40002168282289190969886028462030009044
:104F5000417801A802F042FC2168042289190969FC
:104F6000896888600098417801A8491C02F036FCE5
:104F7000216810228919096989684860A97F01A8F8
:104F800002F02CFC21680222C9194866A97F01A8F9
:104F900002F024FC21680222C919C863A97F01A874
:104FA00002F01CFC21680222C9190864A97F01A82B
:104FB00002F014FC21680222C9194864A97F01A8E3
:104FC00002F00CFC21680122C9198864A97F01A89C
:104FD000491C02F003FC21681022C91908660B2144
:104FE00001A802F0FBFB0721226809025118486062
:104FF0000422802101A802F0F1FB21688919C8610F
:10500000029ADC204243012101A8443202F0E6FB6F
:10501000216889190862029AD8204243012101A817
:105020002C3202F0DBFB2168891948620198FEBD31
:10503000580A00003C040020200B002070477047F5
:10504000F0B526480522036852029818806B132198
:10505000C901044659180C34CC6288620C340C63C4
:105060000C344C630C348C630C34CC630C340C6403
:105070000C348C660C34CC660C340C677830486782
:10508000002017499C1811E0A36A45015D195823B7
:1050900043431F4666693437F5510C254543A66BDB
:1050A0008435751928336669401CF5508B7F83421F
:1050B000EAD80A4B00201C68A41807E0E56A06013C
:1050C000AE1945010835A769401C7E518D7F854288
:1050D000F4D8C868196889184864F0BD3C040020F9
:1050E000200B002070470020704700207047704759
:1050F000C0200006016880220A4302600168802205
:1051000091430160704770473EB5174D15482968B7
:10511000827F0846A0310A7300246030047644760A
:105120008476E122C2768022027702224277302002
:1051300008704C7002AA01A96846FDF753FC684646
:105140000078A22201016846007A891C000201430E
:10515000684600790003014328681152A0300471A9
:105160003EBD0000200B00203C04002070B502F082
:1051700041FB02F05BFB02F01BFC02F04DFC02F075
:105180005BFC184C18492068184D4018811001200C
:105190002A68C0021018C166616889080167A168A1
:1051A0008908416702F074FC1D2029688001228B68
:1051B00008180287628B4287A28B4286628C8286A5
:1051C0002046203002783B204001081882750021DB
:1051D000017002F097FC02F09FFC02F0D7FC02F095
:1051E000E3FC70BD200B00200000FCEF3C0400201D
:1051F00010B5012818D8072916D80C4A126813468A
:105200002033187759778007C906000E090E01432D
:105210000020074BA03204E08401E418A172401C76
:10522000C0B2147B8442F7D8002010BD3C0400209B
:105230000001002070B5294D274A28680021FF3061
:105240001B30FEF7F9FC2868FF21F22211261154C9
:10525000B601821951729172D172214AF4210A5019
:105260005D231B01F822FF21C018FEF7E5FC1D4B52
:1052700028687822FF21C018FEF7DEFC194B286849
:10528000F8337822FF21C018FEF7D6FC9B2328684C
:10529000DB007822FF21C018FEF7CEFC286800242E
:1052A00081190C761321890141180C75152189018A
:1052B00041180C741721890140180473FFF74CFD45
:1052C000296801230A468032906788190475E03105
:1052D0004B74D467847570BD2A0300003C04002021
:1052E000905F01005C040000F0B5444F044638684C
:1052F00085B0783016460D46002C19D0062C11D0FA
:10530000082C0CD0182C0AD0282C0BD02A2C09D011
:105310002C2C0AD02E2C0BD0D02C42D043E0102DB8
:1053200008D040E0022D05D03DE0012D02D03AE04A
:10533000062D38D10A4600193146FEF777FC2C2C91
:1053400028D13078002825D0FFF745FD012824D04A
:105350001B201F304009401C41004118012002F071
:105360004FFCFFF738FD012819D01B201F304009E2
:105370004100411822484078401AC01EC1B20020A6
:1053800002F03EFC38684022403001781143F92297
:1053900011400170002005B0F0BDFB20D9E7FB20D3
:1053A000E4E7012D04D0FFF716FD012804D007E043
:1053B000107802F031FCEEE7D12C01D1082D01D09C
:1053C0001220E8E7022231466846FEF72FFC02224F
:1053D000B11C01A8FEF72AFC0222311D02A8FEF72B
:1053E00025FC0222B11D03A8FEF720FC6846838934
:1053F000028981880088FFF7E2FCCCE73C040020AA
:10540000400B0020F0B55FA099B000685E49159090
:10541000E3220868D2008418052252028218926999
:105420002546403514922A7AD20702D0622019B05C
:10543000F0BDAA8B01235B029A4201D9AB8303E042
:10544000172A01D21722AA83149AA0301392067B3E
:105450000DE0761EF6B2139871010F18B8680F9020
:10546000384620220021FEF7E7FB0F98B860002E97
:10547000EFD120460830E0606460A060246008300E
:10548000139060612061FF220021083002F0D4FBFC
:105490002046FF220021243002F0CEFB2046AA7FC6
:1054A0000021303002F0C8FB2046FF2200213C30B2
:1054B00002F0C2FB00222A7210461721324B05E08F
:1054C000149E4701BE19401C7180C0B21E68A036F0
:1054D000367B8642F4D8002028832F8C688C0026E7
:1054E000149008E02820E16C70430918204600F071
:1054F00077FC761CB6B2BE42F4D3002608E030201A
:10550000216D70430918139800F06AFC761CB6B23E
:1055100014988642F3D3012002F096FB01246846DA
:1055200004701A4941802346042269460CA801F000
:10553000FBFC002822D16846018E81821449018338
:10554000042606858475202108A881720024C4726F
:10555000047307214173847305A90DA801F094FD1C
:1055600000280BD1684604874687818E15AB0EAAAA
:10557000008E02F075FB002800D158E70020287249
:10558000472054E70000FFFF3C0400200118000002
:10559000052A0000FFB50C4678A103C995B001911A
:1055A0000090002108A801730321C90268464186C2
:1055B000012108A8734E017435681746AE3502F014
:1055C00083FB002808D170493068401802F010FCB5
:1055D000A878002802D0462019B0F0BD0BA8159974
:1055E00002F010FC0028F7D1072010A90871012C47
:1055F00005D0022C0AD0002C0ED04220ECE708A8DF
:10560000017B1020014308A8017305E011A90BA834
:1056100002F006FC0028DFD110A8027901230CA9B2
:10562000284601F081FC00287ED1022229461898E4
:10563000FEF7FCFA2988684681811521490201821A
:105640000784012686734E2108A881700024C47047
:10565000067107214171867103A902A801F014FDAA
:10566000002861D1022202A91E98FEF7DFFA082F56
:1056700002D26846478502E00820694648856946A7
:105680000C850B4628880AAA098902F0E9FA002845
:105690006DD13E49684601820227078408A88471BB
:1056A00003A902A801F0F0FC002860D1022202A99F
:1056B0001F98FEF7BBFA68460470694644704F8530
:1056C0000B4628880AAA098902F0CAFA00284ED196
:1056D00008A8007BC00723D02C496846C91C01825A
:1056E0000821018408A88770047103A902A801F0A9
:1056F000CBFC00283BD1FF216846C1718171C1708C
:1057000081704170017044710471694608204885B8
:105710000B4628880AAA098902F0A2FA002826D195
:1057200008A8007B800600E021E022D52988684691
:1057300081811649A53101820684867308A8877085
:10574000C470047107214171847103A902A801F09A
:105750009BFC00280BD169460E700C854E850B46CC
:1057600028880AAA098902F07BFA002801D047207C
:1057700032E708A8007BA87000202DE7626C7565F1
:105780006E7267213C040020DE060000012A000042
:10579000FFB5002099B0239A0B9012900546149003
:1057A000064615901C46DB480B460068E321C900FD
:1057B000411803910021229F089109915188069177
:1057C00011880A913B21490140180078C00706D092
:1057D0000FA9184602F026FB00280AD102E0472054
:1057E0001DB0F0BD10AA0F991B9802F031FB0028E4
:1057F00001D06020F4E71998002803D0600701D594
:10580000012000E000201390A007800F1C9010984A
:1058100017902030C078012840D11798BE4B0189DD
:105820009942F9D11798069904680A98228C411870
:10583000914233D82046203016908078012816D027
:10584000E08B04901798806900788006800F7DD0E7
:10585000039840301890007A800777D51C9800286C
:10586000F5D0AD4F0F99FF372031206814E0BA42D0
:1058700014D3B942DDD80497E4E70389A64A9342DA
:1058800003D12322125C012A08D0BB4203D1232278
:10589000125C012A03D000688842EED134E1059001
:1058A0000028FBD09B4805210268490251188969EC
:1058B0000027009162E0780100990390085A0105E1
:1058C0005AD01999002901D0884255D105997A00FA
:1058D0008B69511C595C9A5C0902891889B20D9137
:1058E000890749D00222059902F0C1FA002804D0A4
:1058F0001998002840D0652072E7002008A9C855F3
:105900001C98C00718D0179880690078C00613D576
:105910000D98C00710D00120C8550543009A039880
:1059200080184088159A904206D91590009A0398DD
:10593000105A0005000D14901C9880071CD517986C
:1059400080690078800617D50D9800E084E0800714
:1059500012D50220CA5D05430243CA550099039837
:10596000401840881599884206D9159000990398E7
:10597000085A0005000D14907F1CFFB265480068AE
:10598000A030037BBB4296D8002D65D01898007AD2
:1059900000065FD45F48016805204002081881694D
:1059A00000201BE042018E5A360515D0AE070BD5FC
:1059B00056183669B7070DD408AF3F5CBF0703D54B
:1059C000360701D546200BE7EE0705D05218127CAA
:1059D000D20701D0432003E7401CC0B28342E1D884
:1059E0001598C01E86B20498864200D90646A807BC
:1059F0000FD520220020149902F062FA129000289C
:105A00007DD0F01C82B20021129802F07BFA0028AF
:105A100011D1E80720D020220020149902F050FA7A
:105A20000B90002807D0F01C82B200210B9802F0E6
:105A300069FA002810D0802002F006F91298002898
:105A400002D0002101F03AFA0B98002802D0002180
:105A500001F034FA6420C3E6A1690A98069A08188E
:105A60002499FEF7E3F816988078012801D104986C
:105A7000E083002D46D0274B052019684002081806
:105A80008169002008AA0CE04301CF5A3F0506D0E7
:105A90005F18BC463B69175C3B4367463B61401C53
:105AA000C0B21C4B1B68A0331B7B8342ECD8A807F9
:105AB0000DD512980090F01C82B221461C310220B4
:105AC000A36902F026FA0220129902F041FAE807CF
:105AD00018D00B980090F61C2146B2B21C31012060
:105AE000A36902F016FA1398002805D00B988021BC
:105AF000C07C08430B99C87401200B9900E005E0B5
:105B000002F026FA00206BE6422069E6802002F0CF
:105B10009BF89FE73C04002003280000F3B5194BD5
:105B200084460F2418680025E4010119AC2381B0D4
:105B30002A461F5C13E07826CB6B56439B196E26D2
:105B4000F65CF6071E7A06D0B02E06D3F3B2F02B21
:105B500003D8462514E0A02EF8D2521CD2B29742A8
:105B6000E9D8F123DB0010226146064EC018FEF78B
:105B70005DF83068011902980A7A800102430A72BE
:105B80002846FEBD3C040020F0B58BB09C460C4678
:105B900005461346624601A806A9139F179E01F009
:105BA000AFF9002816D11298079068460580448006
:105BB00008A8077014994170159981701699C170E1
:105BC00006716846119981821099C18269461898B8
:105BD00002F0E4F90BB0F0BD10B50022114602F05E
:105BE0008DFA10BD074A914202DC5242914200DA1E
:105BF0001146FF22993251430A1251180A145118C2
:105C000008187047FFFF4F001FB56A463A301073FF
:105C10006846029102F0EAFA002800D0012004B0A0
:105C200010BD7047F0B5144A144B1268D3181A6CA3
:105C3000154608321F2901D93020F0BD00249E6B83
:105C40001F6C365D3E55641CE4B2082CF7D300246B
:105C500005E00678641C1670401CE4B2521C8C42AD
:105C6000F7D3186C891D4170986B9D63186480335D
:105C7000186A45800020F0BD3C040020080900009F
:105C8000F0B5054600200F46079E059C174309D036
:105C9000202905D30127BF03BA4201D8914201D977
:105CA0004220F0BD194621430AD09C42F8D309494D
:105CB0008C4203D00849A41F8C42F1D2062BEFD3AB
:105CC000002D03D0022D01D0032DE9D1032EE7D8FA
:105CD000F0BD0000FFFF00007B0C0000F0B58DB0B0
:105CE0000C4616A9E0C90021089109910A910B916F
:105CF0001599049105A9E0C112A962C90093019107
:105D000013460146039602952246012002F0AAFAA4
:105D10000DB0F0BD10B50A4A830B12688004526AB8
:105D2000800C140A60435A438009101800228A5ECE
:105D3000821A10464030C009C3019A1A0A8010BD69
:105D40003C04002010B5030002F046FB3A332D2D31
:105D50002D1E2130332A2A2A2A2A2A2A2A2A2424B2
:105D600024242424242424242424242424242424F3
:105D700024242424242424242424242424242427E0
:105D8000272727272727273302F033FB10BD02F0F0
:105D900031FB10BD02F052FB10BD02F05DFB10BDE7
:105DA00002F08AFB10BD02F0C3FB10BD02F0FAFB4B
:105DB00010BD3A38C0B20428FAD2FDF74AFA10BD35
:105DC00000B50B4602F0EFFB002808D003CB083BE0
:105DD000086003CB41600020083B1860586000BD9C
:105DE000086042684A60426811604160704708B5C7
:105DF00000216A4611806946FFF78CFF08BD00004C
:105E00000649C20B09684004096A400CCB09584393
:105E10005143000A08182030800970473C040020D4
:105E20000068002801D000207047012070470068FA
:105E30007047000010B5044600202082A074A168BD
:105E4000A16161612060204602F0B8FB452801D0C5
:105E5000412010BDA088032102F0D8FB044602F0C7
:105E60001BFC002812D072B60948012201684F209D
:105E7000400109184879A2401043487162B60020D9
:105E800002F024FC002801D002F0F4FC002010BD38
:105E90003C04002010B504460068884209D102681D
:105EA000226000220260206800280BD1626009E0B5
:105EB000104602688A42FBD10A68026062688A4220
:105EC00000D16060084602F0F3FFE17A081AE07240
:105ED000A07A401EA07210BD0020704770470000DD
:105EE000F8B5104E30682030C57D002D19D0002443
:105EF00005277F0210E0E9070BD0C019416958203F
:105F0000604308184030417D204602F0D7FF00284A
:105F100007D06D08641CE4B23068AC21095CA14272
:105F2000E9D8F8BD3C040020704700003EB50B489E
:105F300001AA0468694602A8683403F011F8002831
:105F40000BD06846007AE18801228240114204D0D9
:105F500069460978019AFDF796F93EBD3C04002098
:105F60000449002008610448012100686030C171C3
:105F700070470000000010483C04002070B51A4A29
:105F80001A4CD37B2268002B11D01A4E184B800973
:105F9000CDB2584375430B0A2D0A734310355B1974
:105FA000154D80305B09000A6943090C04E0192390
:105FB00012481B04FF21E931114D1186698053629B
:105FC000106209482038008EFFF71AFFE914884252
:105FD00000D3481E40052168000E2031087529882D
:105FE000090700D4687270BD400B00203C040020FB
:105FF00053070000F6BC080055050000C2F5280054
:10600000C0000020F8B50C46CA88098A4030521AF0
:106010008088102695B2A84205D20546E07C40064D
:10602000400EE07403E02068002800D1002600291B
:1060300004D1207B800701D5022000E00120CF069B
:106040000643FF0EE81982B20E48A16903680520D5
:1060500040021818006A001D02F0A2FF60610948A2
:10606000A5740168052040020818016AB81C0E5486
:1060700004480168052040020818006AFF1CC55545
:10608000F8BD00003C04002070B5134E134A31687F
:106090008D182C681DE0017B227B914218D121468E
:1060A0002846FFF78DFE284621460830FFF798FE68
:1060B000207B3A2803D220352878401E287072B6FB
:1060C0003068DF224030C1791140C17162B670BDC5
:1060D0002468AC42DFD170BD3C040020F40600000F
:1060E00010B50446C1061148006803D51522BF212A
:1060F0000C4006E01B2189014118497EC90710D0D8
:1061000012222107890E08181121C9014018C06FF9
:106110000023214600F00EF8010004D0204600F0D4
:1061200067F8002010BD072010BD00003C040020CF
:1061300070470000FFB5044600262C4F83B09C46F4
:106140000D46080616D572B601AB6A466146204672
:1061500002F04AFF00280BD06846818800988278B8
:1061600092089200827001806180012662B615E07B
:1061700062B621E001AB6A466146204602F034FF78
:10618000002819D0680609D468468188009882786A
:106190009208920082700180618001260098AA0016
:1061A000817840238907890F1A401143817005992E
:1061B000C170002E0ED115E00020009072B6A80626
:1061C0000FD411203968C0010818816E08221143CC
:1061D000816662B672B63868F7224030C1791140E4
:1061E000C17162B6009807B0F0BD00003C04002009
:1061F0000A46400608D5D0783A280AD2111D054B28
:1062000080001B5810461847907880088000801C3A
:106210008870704730230510F0B504463C48E321F0
:106220000068C9004518218A85B089041AD5022161
:1062300004911B2189014118497F412627880123A8
:10624000C9070FD01121C901083040183122C06F91
:106250000221FFF76FFF010004D08F808E71049838
:10626000FFF7C6FF294620880122183102F0F2FE0E
:10627000294620880122303102F0ECFE2946208890
:106280000122243102F0E6FE2946208800223C311A
:1062900002F0E0FE20880005000D02F0F5FE85000A
:1062A0002946113168460173FFF7EEFE2946123187
:1062B00068460173FFF7E8FE29461331684601730B
:1062C000FFF7E2FE684614350573FFF7DDFE208810
:1062D00002F0F6FE208801050D48090D0268052030
